{
  "_format": "hh-sol-artifact-1",
  "contractName": "Disperse",
  "sourceName": "contracts/Disperse.sol",
  "abi": [
    {
      "inputs": [
        {
          "internalType": "address[]",
          "name": "recipients",
          "type": "address[]"
        },
        {
          "internalType": "uint256[]",
          "name": "values",
          "type": "uint256[]"
        }
      ],
      "name": "disperseEther",
      "outputs": [],
      "stateMutability": "payable",
      "type": "function"
    },
    {
      "inputs": [
        {
          "internalType": "contract IERC20",
          "name": "token",
          "type": "address"
        },
        {
          "internalType": "address[]",
          "name": "recipients",
          "type": "address[]"
        },
        {
          "internalType": "uint256[]",
          "name": "values",
          "type": "uint256[]"
        }
      ],
      "name": "disperseToken",
      "outputs": [],
      "stateMutability": "nonpayable",
      "type": "function"
    },
    {
      "inputs": [
        {
          "internalType": "contract IERC20",
          "name": "token",
          "type": "address"
        },
        {
          "internalType": "address[]",
          "name": "recipients",
          "type": "address[]"
        },
        {
          "internalType": "uint256[]",
          "name": "values",
          "type": "uint256[]"
        }
      ],
      "name": "disperseTokenSimple",
      "outputs": [],
      "stateMutability": "nonpayable",
      "type": "function"
    }
  ],
  "bytecode": "0x6080604052348015600f57600080fd5b506109ca8061001f6000396000f3fe6080604052600436106100345760003560e01c806351ba162c14610039578063c73a2d6014610062578063e63d38ed1461008b575b600080fd5b34801561004557600080fd5b50610060600480360381019061005b919061071c565b6100a7565b005b34801561006e57600080fd5b506100896004803603810190610084919061071c565b610183565b005b6100a560048036038101906100a091906107a7565b61032a565b005b60005b825181101561017d578373ffffffffffffffffffffffffffffffffffffffff166323b872dd338584815181106100e3576100e261081f565b5b60200260200101518585815181106100fe576100fd61081f565b5b60200260200101516040518463ffffffff1660e01b81526004016101249392919061086c565b6020604051808303816000875af1158015610143573d6000803e3d6000fd5b505050506040513d601f19601f8201168201806040525081019061016791906108db565b61017057600080fd5b80806001019150506100aa565b50505050565b6000805b83518110156101c5578281815181106101a3576101a261081f565b5b6020026020010151826101b69190610937565b91508080600101915050610187565b508373ffffffffffffffffffffffffffffffffffffffff166323b872dd3330846040518463ffffffff1660e01b81526004016102039392919061086c565b6020604051808303816000875af1158015610222573d6000803e3d6000fd5b505050506040513d601f19601f8201168201806040525081019061024691906108db565b61024f57600080fd5b60005b8351811015610323578473ffffffffffffffffffffffffffffffffffffffff1663a9059cbb85838151811061028a5761028961081f565b5b60200260200101518584815181106102a5576102a461081f565b5b60200260200101516040518363ffffffff1660e01b81526004016102ca92919061096b565b6020604051808303816000875af11580156102e9573d6000803e3d6000fd5b505050506040513d601f19601f8201168201806040525081019061030d91906108db565b61031657600080fd5b8080600101915050610252565b5050505050565b60005b82518110156103be578281815181106103495761034861081f565b5b602002602001015173ffffffffffffffffffffffffffffffffffffffff166108fc83838151811061037d5761037c61081f565b5b60200260200101519081150290604051600060405180830381858888f193505050501580156103b0573d6000803e3d6000fd5b50808060010191505061032d565b5060004790506000811115610415573373ffffffffffffffffffffffffffffffffffffffff166108fc829081150290604051600060405180830381858888f19350505050158015610413573d6000803e3d6000fd5b505b505050565b6000604051905090565b600080fd5b600080fd5b600073ffffffffffffffffffffffffffffffffffffffff82169050919050565b60006104598261042e565b9050919050565b600061046b8261044e565b9050919050565b61047b81610460565b811461048657600080fd5b50565b60008135905061049881610472565b92915050565b600080fd5b6000601f19601f8301169050919050565b7f4e487b7100000000000000000000000000000000000000000000000000000000600052604160045260246000fd5b6104ec826104a3565b810181811067ffffffffffffffff8211171561050b5761050a6104b4565b5b80604052505050565b600061051e61041a565b905061052a82826104e3565b919050565b600067ffffffffffffffff82111561054a576105496104b4565b5b602082029050602081019050919050565b600080fd5b6105698161044e565b811461057457600080fd5b50565b60008135905061058681610560565b92915050565b600061059f61059a8461052f565b610514565b905080838252602082019050602084028301858111156105c2576105c161055b565b5b835b818110156105eb57806105d78882610577565b8452602084019350506020810190506105c4565b5050509392505050565b600082601f83011261060a5761060961049e565b5b813561061a84826020860161058c565b91505092915050565b600067ffffffffffffffff82111561063e5761063d6104b4565b5b602082029050602081019050919050565b6000819050919050565b6106628161064f565b811461066d57600080fd5b50565b60008135905061067f81610659565b92915050565b600061069861069384610623565b610514565b905080838252602082019050602084028301858111156106bb576106ba61055b565b5b835b818110156106e457806106d08882610670565b8452602084019350506020810190506106bd565b5050509392505050565b600082601f8301126107035761070261049e565b5b8135610713848260208601610685565b91505092915050565b60008060006060848603121561073557610734610424565b5b600061074386828701610489565b935050602084013567ffffffffffffffff81111561076457610763610429565b5b610770868287016105f5565b925050604084013567ffffffffffffffff81111561079157610790610429565b5b61079d868287016106ee565b9150509250925092565b600080604083850312156107be576107bd610424565b5b600083013567ffffffffffffffff8111156107dc576107db610429565b5b6107e8858286016105f5565b925050602083013567ffffffffffffffff81111561080957610808610429565b5b610815858286016106ee565b9150509250929050565b7f4e487b7100000000000000000000000000000000000000000000000000000000600052603260045260246000fd5b6108578161044e565b82525050565b6108668161064f565b82525050565b6000606082019050610881600083018661084e565b61088e602083018561084e565b61089b604083018461085d565b949350505050565b60008115159050919050565b6108b8816108a3565b81146108c357600080fd5b50565b6000815190506108d5816108af565b92915050565b6000602082840312156108f1576108f0610424565b5b60006108ff848285016108c6565b91505092915050565b7f4e487b7100000000000000000000000000000000000000000000000000000000600052601160045260246000fd5b60006109428261064f565b915061094d8361064f565b925082820190508082111561096557610964610908565b5b92915050565b6000604082019050610980600083018561084e565b61098d602083018461085d565b939250505056fea26469706673582212202402553f0ec0b9f364782867f5314f7a53e122f998d13675f418747e9472152c64736f6c634300081b0033",
  "linkReferences": {},
  "deployedLinkReferences": {}
}